{
  "contractName": "Verifier",
  "abi": [
    {
      "anonymous": false,
      "inputs": [
        {
          "indexed": false,
          "internalType": "address",
          "name": "signer",
          "type": "address"
        },
        {
          "indexed": false,
          "internalType": "string",
          "name": "description",
          "type": "string"
        }
      ],
      "name": "Credentials",
      "type": "event"
    },
    {
      "inputs": [
        {
          "internalType": "string",
          "name": "_description",
          "type": "string"
        },
        {
          "internalType": "uint8",
          "name": "v",
          "type": "uint8"
        },
        {
          "internalType": "bytes32",
          "name": "r",
          "type": "bytes32"
        },
        {
          "internalType": "bytes32",
          "name": "s",
          "type": "bytes32"
        }
      ],
      "name": "createCredentials",
      "outputs": [],
      "stateMutability": "nonpayable",
      "type": "function"
    },
    {
      "inputs": [
        {
          "internalType": "address",
          "name": "addr",
          "type": "address"
        }
      ],
      "name": "getCredentials",
      "outputs": [
        {
          "internalType": "string",
          "name": "",
          "type": "string"
        }
      ],
      "stateMutability": "view",
      "type": "function",
      "constant": true
    }
  ],
  "bytecode": "0x608060405234801561001057600080fd5b50610631806100206000396000f3fe608060405234801561001057600080fd5b50600436106100365760003560e01c8063842706081461003b578063dd5701161461006b575b600080fd5b610055600480360381019061005091906101f7565b610087565b60405161006291906102bd565b60405180910390f35b61008560048036038101906100809190610483565b6100c6565b005b60606040518060400160405280600481526020017f74657374000000000000000000000000000000000000000000000000000000008152509050919050565b6000846040516020016100d99190610542565b6040516020818303038152906040528051906020012090506000600182868686604051600081526020016040526040516101169493929190610577565b6020604051602081039080840390855afa158015610138573d6000803e3d6000fd5b5050506020604051035190507f6a866bef27863a80f7d8f175f912c0cc1206ef097a0295102a30fcd8d585844d81876040516101759291906105cb565b60405180910390a1505050505050565b6000604051905090565b600080fd5b600080fd5b600073ffffffffffffffffffffffffffffffffffffffff82169050919050565b60006101c482610199565b9050919050565b6101d4816101b9565b81146101df57600080fd5b50565b6000813590506101f1816101cb565b92915050565b60006020828403121561020d5761020c61018f565b5b600061021b848285016101e2565b91505092915050565b600081519050919050565b600082825260208201905092915050565b60005b8381101561025e578082015181840152602081019050610243565b8381111561026d576000848401525b50505050565b6000601f19601f8301169050919050565b600061028f82610224565b610299818561022f565b93506102a9818560208601610240565b6102b281610273565b840191505092915050565b600060208201905081810360008301526102d78184610284565b905092915050565b600080fd5b600080fd5b7f4e487b7100000000000000000000000000000000000000000000000000000000600052604160045260246000fd5b61032182610273565b810181811067ffffffffffffffff821117156103405761033f6102e9565b5b80604052505050565b6000610353610185565b905061035f8282610318565b919050565b600067ffffffffffffffff82111561037f5761037e6102e9565b5b61038882610273565b9050602081019050919050565b82818337600083830152505050565b60006103b76103b284610364565b610349565b9050828152602081018484840111156103d3576103d26102e4565b5b6103de848285610395565b509392505050565b600082601f8301126103fb576103fa6102df565b5b813561040b8482602086016103a4565b91505092915050565b600060ff82169050919050565b61042a81610414565b811461043557600080fd5b50565b60008135905061044781610421565b92915050565b6000819050919050565b6104608161044d565b811461046b57600080fd5b50565b60008135905061047d81610457565b92915050565b6000806000806080858703121561049d5761049c61018f565b5b600085013567ffffffffffffffff8111156104bb576104ba610194565b5b6104c7878288016103e6565b94505060206104d887828801610438565b93505060406104e98782880161046e565b92505060606104fa8782880161046e565b91505092959194509250565b600081905092915050565b600061051c82610224565b6105268185610506565b9350610536818560208601610240565b80840191505092915050565b600061054e8284610511565b915081905092915050565b6105628161044d565b82525050565b61057181610414565b82525050565b600060808201905061058c6000830187610559565b6105996020830186610568565b6105a66040830185610559565b6105b36060830184610559565b95945050505050565b6105c5816101b9565b82525050565b60006040820190506105e060008301856105bc565b81810360208301526105f28184610284565b9050939250505056fea2646970667358221220df8f7be1b98d8e639705d4e2bd41c26eafacdca941e3cd95d651d524bfe91ccd64736f6c634300080c0033",
  "immutableReferences": {},
  "source": "// SPDX-License-Identifier: MIT\r\npragma solidity >=0.4.22 <0.9.0;\r\n\r\ncontract Verifier {\r\n  \r\n    event Credentials(address signer, string description);\r\n   \r\n    function createCredentials(string memory _description, uint8 v, bytes32 r, bytes32 s) public {\r\n        bytes32 message = keccak256(abi.encodePacked(_description));\r\n        address signer = ecrecover(message, v, r, s);\r\n        emit Credentials(signer, _description);\r\n    }\r\n\r\n    function getCredentials(address addr) public view returns(string memory){\r\n        return \"test\";\r\n    }\r\n}",
  "sourcePath": "C:\\Users\\fredr\\IdeaProjects\\blockchain-demo-sites\\verifier-backend\\contracts\\Verifier.sol",
  "compiler": {
    "name": "solc",
    "version": "0.8.12+commit.f00d7308.Emscripten.clang"
  },
  "schemaVersion": "3.4.5",
  "updatedAt": "2022-03-10T11:43:45.576Z",
  "networkType": "ethereum",
  "devdoc": {
    "kind": "dev",
    "methods": {},
    "version": 1
  },
  "userdoc": {
    "kind": "user",
    "methods": {},
    "version": 1
  }
}